{
  "contracts/BzzBondingCurve.sol": {
    "BzzBondingCurve": {
      "abi": [
        {
          "inputs": [],
          "stateMutability": "nonpayable",
          "type": "constructor"
        },
        {
          "inputs": [
            {
              "internalType": "uint256",
              "name": "_amount",
              "type": "uint256"
            },
            {
              "internalType": "uint256",
              "name": "_totalSupply",
              "type": "uint256"
            }
          ],
          "name": "buyPrice",
          "outputs": [
            {
              "internalType": "uint256",
              "name": "collateralRequired",
              "type": "uint256"
            }
          ],
          "stateMutability": "pure",
          "type": "function"
        },
        {
          "inputs": [
            {
              "internalType": "uint256",
              "name": "_amount",
              "type": "uint256"
            },
            {
              "internalType": "uint256",
              "name": "_totalSupply",
              "type": "uint256"
            }
          ],
          "name": "sellReward",
          "outputs": [
            {
              "internalType": "uint256",
              "name": "collateralReward",
              "type": "uint256"
            }
          ],
          "stateMutability": "pure",
          "type": "function"
        }
      ],
      "evm": {
        "bytecode": {
          "linkReferences": {},
          "object": "608060405234801561001057600080fd5b50610521806100206000396000f3fe608060405234801561001057600080fd5b50600436106100365760003560e01c8063ba9403e01461003b578063bbb8a2201461006b575b600080fd5b610055600480360381019061005091906102a8565b61009b565b60405161006291906102f3565b60405180910390f35b610085600480360381019061008091906102a8565b6100b2565b60405161009291906102f3565b60405180910390f35b60006100a783836100c6565b508091505092915050565b60006100be838361016a565b905092915050565b600080600084846100d791906103ef565b1161010b577f4e487b7100000000000000000000000000000000000000000000000000000000600052600160045260246000fd5b600061014261012b61012687876101ae90919063ffffffff16565b6101c4565b610134866101c4565b6101ae90919063ffffffff16565b9050600061015986836101e890919063ffffffff16565b905081819350935050509250929050565b6000806101a2610179846101c4565b61019461018f87876101fe90919063ffffffff16565b6101c4565b6101ae90919063ffffffff16565b90508091505092915050565b600081836101bc91906103ef565b905092915050565b60006101e16101d283610214565b836101fe90919063ffffffff16565b9050919050565b600081836101f69190610364565b905092915050565b6000818361020c919061030e565b905092915050565b600080600190505b600581116102745761025f662386f26fc100006303b9aca061023e9190610395565b610251858661027d90919063ffffffff16565b6101e890919063ffffffff16565b9250808061026c9061042d565b91505061021c565b50819050919050565b6000818361028b9190610395565b905092915050565b6000813590506102a2816104d4565b92915050565b600080604083850312156102bb57600080fd5b60006102c985828601610293565b92505060206102da85828601610293565b9150509250929050565b6102ed81610423565b82525050565b600060208201905061030860008301846102e4565b92915050565b600061031982610423565b915061032483610423565b9250827fffffffffffffffffffffffffffffffffffffffffffffffffffffffffffffffff0382111561035957610358610476565b5b828201905092915050565b600061036f82610423565b915061037a83610423565b92508261038a576103896104a5565b5b828204905092915050565b60006103a082610423565b91506103ab83610423565b9250817fffffffffffffffffffffffffffffffffffffffffffffffffffffffffffffffff04831182151516156103e4576103e3610476565b5b828202905092915050565b60006103fa82610423565b915061040583610423565b92508282101561041857610417610476565b5b828203905092915050565b6000819050919050565b600061043882610423565b91507fffffffffffffffffffffffffffffffffffffffffffffffffffffffffffffffff82141561046b5761046a610476565b5b600182019050919050565b7f4e487b7100000000000000000000000000000000000000000000000000000000600052601160045260246000fd5b7f4e487b7100000000000000000000000000000000000000000000000000000000600052601260045260246000fd5b6104dd81610423565b81146104e857600080fd5b5056fea2646970667358221220d6899df579da36bb8924df9f1c712bf82df6c1e7de8a0a02d85692fd680b1d7764736f6c63430008040033",
          "opcodes": "PUSH1 0x80 PUSH1 0x40 MSTORE CALLVALUE DUP1 ISZERO PUSH2 0x10 JUMPI PUSH1 0x0 DUP1 REVERT JUMPDEST POP PUSH2 0x521 DUP1 PUSH2 0x20 PUSH1 0x0 CODECOPY PUSH1 0x0 RETURN INVALID PUSH1 0x80 PUSH1 0x40 MSTORE CALLVALUE DUP1 ISZERO PUSH2 0x10 JUMPI PUSH1 0x0 DUP1 REVERT JUMPDEST POP PUSH1 0x4 CALLDATASIZE LT PUSH2 0x36 JUMPI PUSH1 0x0 CALLDATALOAD PUSH1 0xE0 SHR DUP1 PUSH4 0xBA9403E0 EQ PUSH2 0x3B JUMPI DUP1 PUSH4 0xBBB8A220 EQ PUSH2 0x6B JUMPI JUMPDEST PUSH1 0x0 DUP1 REVERT JUMPDEST PUSH2 0x55 PUSH1 0x4 DUP1 CALLDATASIZE SUB DUP2 ADD SWAP1 PUSH2 0x50 SWAP2 SWAP1 PUSH2 0x2A8 JUMP JUMPDEST PUSH2 0x9B JUMP JUMPDEST PUSH1 0x40 MLOAD PUSH2 0x62 SWAP2 SWAP1 PUSH2 0x2F3 JUMP JUMPDEST PUSH1 0x40 MLOAD DUP1 SWAP2 SUB SWAP1 RETURN JUMPDEST PUSH2 0x85 PUSH1 0x4 DUP1 CALLDATASIZE SUB DUP2 ADD SWAP1 PUSH2 0x80 SWAP2 SWAP1 PUSH2 0x2A8 JUMP JUMPDEST PUSH2 0xB2 JUMP JUMPDEST PUSH1 0x40 MLOAD PUSH2 0x92 SWAP2 SWAP1 PUSH2 0x2F3 JUMP JUMPDEST PUSH1 0x40 MLOAD DUP1 SWAP2 SUB SWAP1 RETURN JUMPDEST PUSH1 0x0 PUSH2 0xA7 DUP4 DUP4 PUSH2 0xC6 JUMP JUMPDEST POP DUP1 SWAP2 POP POP SWAP3 SWAP2 POP POP JUMP JUMPDEST PUSH1 0x0 PUSH2 0xBE DUP4 DUP4 PUSH2 0x16A JUMP JUMPDEST SWAP1 POP SWAP3 SWAP2 POP POP JUMP JUMPDEST PUSH1 0x0 DUP1 PUSH1 0x0 DUP5 DUP5 PUSH2 0xD7 SWAP2 SWAP1 PUSH2 0x3EF JUMP JUMPDEST GT PUSH2 0x10B JUMPI PUSH32 0x4E487B7100000000000000000000000000000000000000000000000000000000 PUSH1 0x0 MSTORE PUSH1 0x1 PUSH1 0x4 MSTORE PUSH1 0x24 PUSH1 0x0 REVERT JUMPDEST PUSH1 0x0 PUSH2 0x142 PUSH2 0x12B PUSH2 0x126 DUP8 DUP8 PUSH2 0x1AE SWAP1 SWAP2 SWAP1 PUSH4 0xFFFFFFFF AND JUMP JUMPDEST PUSH2 0x1C4 JUMP JUMPDEST PUSH2 0x134 DUP7 PUSH2 0x1C4 JUMP JUMPDEST PUSH2 0x1AE SWAP1 SWAP2 SWAP1 PUSH4 0xFFFFFFFF AND JUMP JUMPDEST SWAP1 POP PUSH1 0x0 PUSH2 0x159 DUP7 DUP4 PUSH2 0x1E8 SWAP1 SWAP2 SWAP1 PUSH4 0xFFFFFFFF AND JUMP JUMPDEST SWAP1 POP DUP2 DUP2 SWAP4 POP SWAP4 POP POP POP SWAP3 POP SWAP3 SWAP1 POP JUMP JUMPDEST PUSH1 0x0 DUP1 PUSH2 0x1A2 PUSH2 0x179 DUP5 PUSH2 0x1C4 JUMP JUMPDEST PUSH2 0x194 PUSH2 0x18F DUP8 DUP8 PUSH2 0x1FE SWAP1 SWAP2 SWAP1 PUSH4 0xFFFFFFFF AND JUMP JUMPDEST PUSH2 0x1C4 JUMP JUMPDEST PUSH2 0x1AE SWAP1 SWAP2 SWAP1 PUSH4 0xFFFFFFFF AND JUMP JUMPDEST SWAP1 POP DUP1 SWAP2 POP POP SWAP3 SWAP2 POP POP JUMP JUMPDEST PUSH1 0x0 DUP2 DUP4 PUSH2 0x1BC SWAP2 SWAP1 PUSH2 0x3EF JUMP JUMPDEST SWAP1 POP SWAP3 SWAP2 POP POP JUMP JUMPDEST PUSH1 0x0 PUSH2 0x1E1 PUSH2 0x1D2 DUP4 PUSH2 0x214 JUMP JUMPDEST DUP4 PUSH2 0x1FE SWAP1 SWAP2 SWAP1 PUSH4 0xFFFFFFFF AND JUMP JUMPDEST SWAP1 POP SWAP2 SWAP1 POP JUMP JUMPDEST PUSH1 0x0 DUP2 DUP4 PUSH2 0x1F6 SWAP2 SWAP1 PUSH2 0x364 JUMP JUMPDEST SWAP1 POP SWAP3 SWAP2 POP POP JUMP JUMPDEST PUSH1 0x0 DUP2 DUP4 PUSH2 0x20C SWAP2 SWAP1 PUSH2 0x30E JUMP JUMPDEST SWAP1 POP SWAP3 SWAP2 POP POP JUMP JUMPDEST PUSH1 0x0 DUP1 PUSH1 0x1 SWAP1 POP JUMPDEST PUSH1 0x5 DUP2 GT PUSH2 0x274 JUMPI PUSH2 0x25F PUSH7 0x2386F26FC10000 PUSH4 0x3B9ACA0 PUSH2 0x23E SWAP2 SWAP1 PUSH2 0x395 JUMP JUMPDEST PUSH2 0x251 DUP6 DUP7 PUSH2 0x27D SWAP1 SWAP2 SWAP1 PUSH4 0xFFFFFFFF AND JUMP JUMPDEST PUSH2 0x1E8 SWAP1 SWAP2 SWAP1 PUSH4 0xFFFFFFFF AND JUMP JUMPDEST SWAP3 POP DUP1 DUP1 PUSH2 0x26C SWAP1 PUSH2 0x42D JUMP JUMPDEST SWAP2 POP POP PUSH2 0x21C JUMP JUMPDEST POP DUP2 SWAP1 POP SWAP2 SWAP1 POP JUMP JUMPDEST PUSH1 0x0 DUP2 DUP4 PUSH2 0x28B SWAP2 SWAP1 PUSH2 0x395 JUMP JUMPDEST SWAP1 POP SWAP3 SWAP2 POP POP JUMP JUMPDEST PUSH1 0x0 DUP2 CALLDATALOAD SWAP1 POP PUSH2 0x2A2 DUP2 PUSH2 0x4D4 JUMP JUMPDEST SWAP3 SWAP2 POP POP JUMP JUMPDEST PUSH1 0x0 DUP1 PUSH1 0x40 DUP4 DUP6 SUB SLT ISZERO PUSH2 0x2BB JUMPI PUSH1 0x0 DUP1 REVERT JUMPDEST PUSH1 0x0 PUSH2 0x2C9 DUP6 DUP3 DUP7 ADD PUSH2 0x293 JUMP JUMPDEST SWAP3 POP POP PUSH1 0x20 PUSH2 0x2DA DUP6 DUP3 DUP7 ADD PUSH2 0x293 JUMP JUMPDEST SWAP2 POP POP SWAP3 POP SWAP3 SWAP1 POP JUMP JUMPDEST PUSH2 0x2ED DUP2 PUSH2 0x423 JUMP JUMPDEST DUP3 MSTORE POP POP JUMP JUMPDEST PUSH1 0x0 PUSH1 0x20 DUP3 ADD SWAP1 POP PUSH2 0x308 PUSH1 0x0 DUP4 ADD DUP5 PUSH2 0x2E4 JUMP JUMPDEST SWAP3 SWAP2 POP POP JUMP JUMPDEST PUSH1 0x0 PUSH2 0x319 DUP3 PUSH2 0x423 JUMP JUMPDEST SWAP2 POP PUSH2 0x324 DUP4 PUSH2 0x423 JUMP JUMPDEST SWAP3 POP DUP3 PUSH32 0xFFFFFFFFFFFFFFFFFFFFFFFFFFFFFFFFFFFFFFFFFFFFFFFFFFFFFFFFFFFFFFFF SUB DUP3 GT ISZERO PUSH2 0x359 JUMPI PUSH2 0x358 PUSH2 0x476 JUMP JUMPDEST JUMPDEST DUP3 DUP3 ADD SWAP1 POP SWAP3 SWAP2 POP POP JUMP JUMPDEST PUSH1 0x0 PUSH2 0x36F DUP3 PUSH2 0x423 JUMP JUMPDEST SWAP2 POP PUSH2 0x37A DUP4 PUSH2 0x423 JUMP JUMPDEST SWAP3 POP DUP3 PUSH2 0x38A JUMPI PUSH2 0x389 PUSH2 0x4A5 JUMP JUMPDEST JUMPDEST DUP3 DUP3 DIV SWAP1 POP SWAP3 SWAP2 POP POP JUMP JUMPDEST PUSH1 0x0 PUSH2 0x3A0 DUP3 PUSH2 0x423 JUMP JUMPDEST SWAP2 POP PUSH2 0x3AB DUP4 PUSH2 0x423 JUMP JUMPDEST SWAP3 POP DUP2 PUSH32 0xFFFFFFFFFFFFFFFFFFFFFFFFFFFFFFFFFFFFFFFFFFFFFFFFFFFFFFFFFFFFFFFF DIV DUP4 GT DUP3 ISZERO ISZERO AND ISZERO PUSH2 0x3E4 JUMPI PUSH2 0x3E3 PUSH2 0x476 JUMP JUMPDEST JUMPDEST DUP3 DUP3 MUL SWAP1 POP SWAP3 SWAP2 POP POP JUMP JUMPDEST PUSH1 0x0 PUSH2 0x3FA DUP3 PUSH2 0x423 JUMP JUMPDEST SWAP2 POP PUSH2 0x405 DUP4 PUSH2 0x423 JUMP JUMPDEST SWAP3 POP DUP3 DUP3 LT ISZERO PUSH2 0x418 JUMPI PUSH2 0x417 PUSH2 0x476 JUMP JUMPDEST JUMPDEST DUP3 DUP3 SUB SWAP1 POP SWAP3 SWAP2 POP POP JUMP JUMPDEST PUSH1 0x0 DUP2 SWAP1 POP SWAP2 SWAP1 POP JUMP JUMPDEST PUSH1 0x0 PUSH2 0x438 DUP3 PUSH2 0x423 JUMP JUMPDEST SWAP2 POP PUSH32 0xFFFFFFFFFFFFFFFFFFFFFFFFFFFFFFFFFFFFFFFFFFFFFFFFFFFFFFFFFFFFFFFF DUP3 EQ ISZERO PUSH2 0x46B JUMPI PUSH2 0x46A PUSH2 0x476 JUMP JUMPDEST JUMPDEST PUSH1 0x1 DUP3 ADD SWAP1 POP SWAP2 SWAP1 POP JUMP JUMPDEST PUSH32 0x4E487B7100000000000000000000000000000000000000000000000000000000 PUSH1 0x0 MSTORE PUSH1 0x11 PUSH1 0x4 MSTORE PUSH1 0x24 PUSH1 0x0 REVERT JUMPDEST PUSH32 0x4E487B7100000000000000000000000000000000000000000000000000000000 PUSH1 0x0 MSTORE PUSH1 0x12 PUSH1 0x4 MSTORE PUSH1 0x24 PUSH1 0x0 REVERT JUMPDEST PUSH2 0x4DD DUP2 PUSH2 0x423 JUMP JUMPDEST DUP2 EQ PUSH2 0x4E8 JUMPI PUSH1 0x0 DUP1 REVERT JUMPDEST POP JUMP INVALID LOG2 PUSH5 0x6970667358 0x22 SLT KECCAK256 0xD6 DUP10 SWAP14 CREATE2 PUSH26 0xDA36BB8924DF9F1C712BF82DF6C1E7DE8A0A02D85692FD680B1D PUSH24 0x64736F6C6343000804003300000000000000000000000000 "
        },
        "methodIdentifiers": {
          "buyPrice(uint256,uint256)": "bbb8a220",
          "sellReward(uint256,uint256)": "ba9403e0"
        }
      }
    }
  }
}