{
  "_format": "hh-sol-artifact-1",
  "contractName": "BzzBondingCurve",
  "sourceName": "contracts/BzzBondingCurve.sol",
  "abi": [
    {
      "inputs": [],
      "stateMutability": "nonpayable",
      "type": "constructor"
    },
    {
      "inputs": [
        {
          "internalType": "uint256",
          "name": "_amount",
          "type": "uint256"
        },
        {
          "internalType": "uint256",
          "name": "_totalSupply",
          "type": "uint256"
        }
      ],
      "name": "buyPrice",
      "outputs": [
        {
          "internalType": "uint256",
          "name": "collateralRequired",
          "type": "uint256"
        }
      ],
      "stateMutability": "pure",
      "type": "function"
    },
    {
      "inputs": [
        {
          "internalType": "uint256",
          "name": "_amount",
          "type": "uint256"
        },
        {
          "internalType": "uint256",
          "name": "_totalSupply",
          "type": "uint256"
        }
      ],
      "name": "sellReward",
      "outputs": [
        {
          "internalType": "uint256",
          "name": "collateralReward",
          "type": "uint256"
        }
      ],
      "stateMutability": "pure",
      "type": "function"
    }
  ],
  "bytecode": "0x608060405234801561001057600080fd5b50610521806100206000396000f3fe608060405234801561001057600080fd5b50600436106100365760003560e01c8063ba9403e01461003b578063bbb8a2201461006b575b600080fd5b610055600480360381019061005091906102a8565b61009b565b60405161006291906102f3565b60405180910390f35b610085600480360381019061008091906102a8565b6100b2565b60405161009291906102f3565b60405180910390f35b60006100a783836100c6565b508091505092915050565b60006100be838361016a565b905092915050565b600080600084846100d791906103ef565b1161010b577f4e487b7100000000000000000000000000000000000000000000000000000000600052600160045260246000fd5b600061014261012b61012687876101ae90919063ffffffff16565b6101c4565b610134866101c4565b6101ae90919063ffffffff16565b9050600061015986836101e890919063ffffffff16565b905081819350935050509250929050565b6000806101a2610179846101c4565b61019461018f87876101fe90919063ffffffff16565b6101c4565b6101ae90919063ffffffff16565b90508091505092915050565b600081836101bc91906103ef565b905092915050565b60006101e16101d283610214565b836101fe90919063ffffffff16565b9050919050565b600081836101f69190610364565b905092915050565b6000818361020c919061030e565b905092915050565b600080600190505b600581116102745761025f662386f26fc100006303b9aca061023e9190610395565b610251858661027d90919063ffffffff16565b6101e890919063ffffffff16565b9250808061026c9061042d565b91505061021c565b50819050919050565b6000818361028b9190610395565b905092915050565b6000813590506102a2816104d4565b92915050565b600080604083850312156102bb57600080fd5b60006102c985828601610293565b92505060206102da85828601610293565b9150509250929050565b6102ed81610423565b82525050565b600060208201905061030860008301846102e4565b92915050565b600061031982610423565b915061032483610423565b9250827fffffffffffffffffffffffffffffffffffffffffffffffffffffffffffffffff0382111561035957610358610476565b5b828201905092915050565b600061036f82610423565b915061037a83610423565b92508261038a576103896104a5565b5b828204905092915050565b60006103a082610423565b91506103ab83610423565b9250817fffffffffffffffffffffffffffffffffffffffffffffffffffffffffffffffff04831182151516156103e4576103e3610476565b5b828202905092915050565b60006103fa82610423565b915061040583610423565b92508282101561041857610417610476565b5b828203905092915050565b6000819050919050565b600061043882610423565b91507fffffffffffffffffffffffffffffffffffffffffffffffffffffffffffffffff82141561046b5761046a610476565b5b600182019050919050565b7f4e487b7100000000000000000000000000000000000000000000000000000000600052601160045260246000fd5b7f4e487b7100000000000000000000000000000000000000000000000000000000600052601260045260246000fd5b6104dd81610423565b81146104e857600080fd5b5056fea2646970667358221220d6899df579da36bb8924df9f1c712bf82df6c1e7de8a0a02d85692fd680b1d7764736f6c63430008040033",
  "linkReferences": {},
  "deployedLinkReferences": {}
}